:020000040800F2
:1000000000000220CD0200081D0300081D030008A7
:100010001D0300081D0300081D0300080000000068
:100020000000000000000000000000001D030008A8
:100030001D030008000000001D0300081D03000848
:100040001D0300081D0300081D0300081D03000810
:100050001D0300081D0300081D0300081D03000800
:100060001D0300081D0300081D0300081D030008F0
:100070001D0300081D0300081D0300081D030008E0
:100080001D0300081D0300081D03000800000000F8
:100090000000000000000000000000001D03000838
:1000A0001D0300081D0300081D0300081D030008B0
:1000B0001D0300081D0300081D0300081D030008A0
:1000C0001D0300081D0300081D0300081D03000890
:1000D0001D0300081D0300081D03000800000000A8
:1000E0001D0300081D0300081D0300080000000098
:1000F0000000000000000000000000001D030008D8
:10010000000000001D0300081D0300081D03000877
:1001100000000000000000000000000000000000DF
:100120001D0300081D0300081D0300081D0300082F
:100130001D03000800000000000000000000000097
:100140000000000000000000000000001D03000887
:100150001D0300081D0300081D0300081D030008FF
:100160001D0300081D03000800000000000000003F
:10017000000000000000000000000000000000007F
:10018000000000001D030008000000000000000047
:080190001D0300081D03000817
:100198000348044B834202D0034B03B1184770470E
:1001A8000000002000000020000000000548064B69
:1001B8001B1AD90F01EBA301491002D0034B03B15D
:1001C80018477047000000200000002000000000D1
:1001D80010B5064C237843B9FFF7DAFF044B13B187
:1001E8000448AFF300800123237010BD00000020F5
:1001F800000000002003000808B5044B1BB10449A7
:100208000448AFF30080BDE80840CFE700000000D5
:10021800040000202003000880B483B000AF114B15
:100228001B68104A43F0010313600F4B1B680E4A0A
:1002380043F4806313600C4B1B680B4A23F4006380
:1002480013600A4B1B68094A83F0200313600023DC
:100258007B6002E07B6801337B607B68044A9342E1
:10026800F8DDEEE73038024000000240140002409A
:100278001FA1070070B50F4B0F4DAB42A3EB05064E
:1002880007D0B610002455F8043B01349847A6421D
:10029800F9D800F041F8094D094B5E1BAB424FEA13
:1002A800A60606D0002455F8043B01349847A64218
:1002B800F9D870BD3803000838030008380300086F
:1002C8003C0300080D488546AFF300800C480D49F3
:1002D8000D4A002302E0D458C4500433C4188C4299
:1002E800F9D30A4A0A4C002301E013600432A242FF
:1002F800FBD3FFF7BFFFFFF78FFFFEE700000220E9
:10030800000000200000002040030008000000203A
:100318001C000020FEE70000F8B500BFF8BC08BCD0
:100328009E467047F8B500BFF8BC08BC9E467047AB
:0403380001020008B6
:04033C00D9010008DB
:04000005080002CD20
:00000001FF
